{
  "_format": "hh-sol-artifact-1",
  "contractName": "SimpleTriggerFactory",
  "sourceName": "contracts/SimpleTriggerFactory.sol",
  "abi": [
    {
      "inputs": [
        {
          "internalType": "address",
          "name": "_link",
          "type": "address"
        },
        {
          "internalType": "address",
          "name": "_registrar",
          "type": "address"
        },
        {
          "internalType": "address",
          "name": "_uniswapRouter",
          "type": "address"
        }
      ],
      "stateMutability": "nonpayable",
      "type": "constructor"
    },
    {
      "inputs": [],
      "name": "amount",
      "outputs": [
        {
          "internalType": "uint96",
          "name": "",
          "type": "uint96"
        }
      ],
      "stateMutability": "view",
      "type": "function"
    },
    {
      "inputs": [
        {
          "components": [
            {
              "internalType": "address",
              "name": "token",
              "type": "address"
            },
            {
              "internalType": "contract AggregatorV3Interface",
              "name": "priceFeed",
              "type": "address"
            },
            {
              "internalType": "uint256",
              "name": "decimalMultiplier",
              "type": "uint256"
            },
            {
              "internalType": "uint24",
              "name": "poolFee",
              "type": "uint24"
            }
          ],
          "internalType": "struct SimpleTrigger.TokenInfo[]",
          "name": "_tokens",
          "type": "tuple[]"
        },
        {
          "internalType": "uint256",
          "name": "_stopLoss",
          "type": "uint256"
        },
        {
          "internalType": "uint256",
          "name": "_takeProfit",
          "type": "uint256"
        },
        {
          "internalType": "address",
          "name": "_owner",
          "type": "address"
        },
        {
          "internalType": "address",
          "name": "_usdc",
          "type": "address"
        },
        {
          "internalType": "uint256",
          "name": "salt",
          "type": "uint256"
        }
      ],
      "name": "createAccount",
      "outputs": [
        {
          "internalType": "contract SimpleTrigger",
          "name": "trigger",
          "type": "address"
        }
      ],
      "stateMutability": "nonpayable",
      "type": "function"
    },
    {
      "inputs": [],
      "name": "encryptedEmail",
      "outputs": [
        {
          "internalType": "bytes",
          "name": "",
          "type": "bytes"
        }
      ],
      "stateMutability": "view",
      "type": "function"
    },
    {
      "inputs": [],
      "name": "gasLimit",
      "outputs": [
        {
          "internalType": "uint32",
          "name": "",
          "type": "uint32"
        }
      ],
      "stateMutability": "view",
      "type": "function"
    },
    {
      "inputs": [
        {
          "components": [
            {
              "internalType": "address",
              "name": "token",
              "type": "address"
            },
            {
              "internalType": "contract AggregatorV3Interface",
              "name": "priceFeed",
              "type": "address"
            },
            {
              "internalType": "uint256",
              "name": "decimalMultiplier",
              "type": "uint256"
            },
            {
              "internalType": "uint24",
              "name": "poolFee",
              "type": "uint24"
            }
          ],
          "internalType": "struct SimpleTrigger.TokenInfo[]",
          "name": "_tokens",
          "type": "tuple[]"
        },
        {
          "internalType": "uint256",
          "name": "_stopLoss",
          "type": "uint256"
        },
        {
          "internalType": "uint256",
          "name": "_takeProfit",
          "type": "uint256"
        },
        {
          "internalType": "address",
          "name": "_owner",
          "type": "address"
        },
        {
          "internalType": "address",
          "name": "_usdc",
          "type": "address"
        },
        {
          "internalType": "uint256",
          "name": "salt",
          "type": "uint256"
        }
      ],
      "name": "getAddress",
      "outputs": [
        {
          "internalType": "address",
          "name": "",
          "type": "address"
        }
      ],
      "stateMutability": "view",
      "type": "function"
    },
    {
      "inputs": [],
      "name": "link",
      "outputs": [
        {
          "internalType": "contract LinkTokenInterface",
          "name": "",
          "type": "address"
        }
      ],
      "stateMutability": "view",
      "type": "function"
    },
    {
      "inputs": [],
      "name": "name",
      "outputs": [
        {
          "internalType": "string",
          "name": "",
          "type": "string"
        }
      ],
      "stateMutability": "view",
      "type": "function"
    },
    {
      "inputs": [],
      "name": "registrar",
      "outputs": [
        {
          "internalType": "contract KeeperRegistrarInterface",
          "name": "",
          "type": "address"
        }
      ],
      "stateMutability": "view",
      "type": "function"
    },
    {
      "inputs": [],
      "name": "simpleTriggerImplementation",
      "outputs": [
        {
          "internalType": "contract SimpleTrigger",
          "name": "",
          "type": "address"
        }
      ],
      "stateMutability": "view",
      "type": "function"
    },
    {
      "inputs": [],
      "name": "triggerCount",
      "outputs": [
        {
          "internalType": "uint256",
          "name": "",
          "type": "uint256"
        }
      ],
      "stateMutability": "view",
      "type": "function"
    },
    {
      "inputs": [
        {
          "internalType": "uint256",
          "name": "",
          "type": "uint256"
        }
      ],
      "name": "triggers",
      "outputs": [
        {
          "internalType": "address",
          "name": "",
          "type": "address"
        }
      ],
      "stateMutability": "view",
      "type": "function"
    }
  ],
  "bytecode": "0x60806040526040518060400160405280600d81526020017f53696d706c655472696767657200000000000000000000000000000000000000815250600390816200004a9190620004ad565b506040518060400160405280600281526020017f307800000000000000000000000000000000000000000000000000000000000081525060049081620000919190620005f9565b50620f4240600560006101000a81548163ffffffff021916908363ffffffff160217905550674563918244f40000600560046101000a8154816bffffffffffffffffffffffff02191690836bffffffffffffffffffffffff160217905550348015620000fc57600080fd5b5060405162005a0138038062005a0183398181016040528101906200012291906200074a565b826000806101000a81548173ffffffffffffffffffffffffffffffffffffffff021916908373ffffffffffffffffffffffffffffffffffffffff16021790555081600160006101000a81548173ffffffffffffffffffffffffffffffffffffffff021916908373ffffffffffffffffffffffffffffffffffffffff16021790555080604051620001b29062000225565b620001be9190620007b7565b604051809103906000f080158015620001db573d6000803e3d6000fd5b50600260006101000a81548173ffffffffffffffffffffffffffffffffffffffff021916908373ffffffffffffffffffffffffffffffffffffffff160217905550505050620007d4565b61292480620030dd83390190565b600081519050919050565b7f4e487b7100000000000000000000000000000000000000000000000000000000600052604160045260246000fd5b7f4e487b7100000000000000000000000000000000000000000000000000000000600052602260045260246000fd5b60006002820490506001821680620002b557607f821691505b602082108103620002cb57620002ca6200026d565b5b50919050565b60008190508160005260206000209050919050565b60006020601f8301049050919050565b600082821b905092915050565b600060088302620003357fffffffffffffffffffffffffffffffffffffffffffffffffffffffffffffffff82620002f6565b620003418683620002f6565b95508019841693508086168417925050509392505050565b6000819050919050565b6000819050919050565b60006200038e62000388620003828462000359565b62000363565b62000359565b9050919050565b6000819050919050565b620003aa836200036d565b620003c2620003b98262000395565b84845462000303565b825550505050565b600090565b620003d9620003ca565b620003e68184846200039f565b505050565b5b818110156200040e5762000402600082620003cf565b600181019050620003ec565b5050565b601f8211156200045d576200042781620002d1565b6200043284620002e6565b8101602085101562000442578190505b6200045a6200045185620002e6565b830182620003eb565b50505b505050565b600082821c905092915050565b6000620004826000198460080262000462565b1980831691505092915050565b60006200049d83836200046f565b9150826002028217905092915050565b620004b88262000233565b67ffffffffffffffff811115620004d457620004d36200023e565b5b620004e082546200029c565b620004ed82828562000412565b600060209050601f83116001811462000525576000841562000510578287015190505b6200051c85826200048f565b8655506200058c565b601f1984166200053586620002d1565b60005b828110156200055f5784890151825560018201915060208501945060208101905062000538565b868310156200057f57848901516200057b601f8916826200046f565b8355505b6001600288020188555050505b505050505050565b60008190508160005260206000209050919050565b601f821115620005f457620005be8162000594565b620005c984620002e6565b81016020851015620005d9578190505b620005f1620005e885620002e6565b830182620003eb565b50505b505050565b620006048262000233565b67ffffffffffffffff81111562000620576200061f6200023e565b5b6200062c82546200029c565b62000639828285620005a9565b600060209050601f8311600181146200067157600084156200065c578287015190505b6200066885826200048f565b865550620006d8565b601f198416620006818662000594565b60005b82811015620006ab5784890151825560018201915060208501945060208101905062000684565b86831015620006cb5784890151620006c7601f8916826200046f565b8355505b6001600288020188555050505b505050505050565b600080fd5b600073ffffffffffffffffffffffffffffffffffffffff82169050919050565b60006200071282620006e5565b9050919050565b620007248162000705565b81146200073057600080fd5b50565b600081519050620007448162000719565b92915050565b600080600060608486031215620007665762000765620006e0565b5b6000620007768682870162000733565b9350506020620007898682870162000733565b92505060406200079c8682870162000733565b9150509250925092565b620007b18162000705565b82525050565b6000602082019050620007ce6000830184620007a6565b92915050565b6128f980620007e46000396000f3fe60806040523480156200001157600080fd5b5060043610620000b85760003560e01c806368f59200116200007b57806368f59200146200017b5780636ee9a49414620001b1578063a78dd42e14620001d3578063aa8c217c1462000209578063b4bb5c00146200022b578063f68016b7146200024d57620000b8565b806306fdde0314620000bd57806309b5090014620000df5780631c4695f414620001015780632b20e39714620001235780635dcf26c61462000145575b600080fd5b620000c76200026f565b604051620000d6919062000cc5565b60405180910390f35b620000e962000305565b604051620000f8919062000d74565b60405180910390f35b6200010b6200032b565b6040516200011a919062000db6565b60405180910390f35b6200012d6200034f565b6040516200013c919062000df8565b60405180910390f35b6200016360048036038101906200015d91906200111c565b62000375565b604051620001729190620011e8565b60405180910390f35b6200019960048036038101906200019391906200111c565b62000485565b604051620001a8919062000d74565b60405180910390f35b620001bb62000abd565b604051620001ca919062001262565b60405180910390f35b620001f16004803603810190620001eb919062001286565b62000b53565b604051620002009190620011e8565b60405180910390f35b6200021362000b86565b604051620002229190620012e1565b60405180910390f35b6200023562000ba4565b6040516200024491906200130f565b60405180910390f35b6200025762000baa565b6040516200026691906200134d565b60405180910390f35b600380546200027e9062001399565b80601f0160208091040260200160405190810160405280929190818152602001828054620002ac9062001399565b8015620002fd5780601f10620002d157610100808354040283529160200191620002fd565b820191906000526020600020905b815481529060010190602001808311620002df57829003601f168201915b505050505081565b600260009054906101000a900473ffffffffffffffffffffffffffffffffffffffff1681565b60008054906101000a900473ffffffffffffffffffffffffffffffffffffffff1681565b600160009054906101000a900473ffffffffffffffffffffffffffffffffffffffff1681565b6000620004798260001b60405180602001620003919062000c1d565b6020820181038252601f19601f82011660405250600260009054906101000a900473ffffffffffffffffffffffffffffffffffffffff168a8a8a8a8a604051602401620003e395949392919062001540565b60405160208183030381529060405263bdb5cab660e01b6020820180517bffffffffffffffffffffffffffffffffffffffffffffffffffffffff83818316178352505050506040516020016200043b929190620015a4565b6040516020818303038152906040526040516020016200045d9291906200161a565b6040516020818303038152906040528051906020012062000bc0565b90509695505050505050565b6000806200049888888888888862000375565b905060008173ffffffffffffffffffffffffffffffffffffffff163b90506000811115620004cb57819250505062000ab3565b8360001b600260009054906101000a900473ffffffffffffffffffffffffffffffffffffffff168a8a8a8a8a6040516024016200050d95949392919062001540565b60405160208183030381529060405263bdb5cab660e01b6020820180517bffffffffffffffffffffffffffffffffffffffffffffffffffffffff8381831617835250505050604051620005609062000c1d565b6200056d929190620015a4565b8190604051809103906000f59050801580156200058e573d6000803e3d6000fd5b50925060066000815480929190620005a69062001671565b91905055508260076000600654815260200190815260200160002060006101000a81548173ffffffffffffffffffffffffffffffffffffffff021916908373ffffffffffffffffffffffffffffffffffffffff16021790555060008054906101000a900473ffffffffffffffffffffffffffffffffffffffff1673ffffffffffffffffffffffffffffffffffffffff166323b872dd3330600560049054906101000a90046bffffffffffffffffffffffff166040518463ffffffff1660e01b81526004016200067893929190620016f7565b6020604051808303816000875af115801562000698573d6000803e3d6000fd5b505050506040513d601f19601f82011682018060405250810190620006be919062001771565b50600060405180610100016040528060038054620006dc9062001399565b80601f01602080910402602001604051908101604052809291908181526020018280546200070a9062001399565b80156200075b5780601f106200072f576101008083540402835291602001916200075b565b820191906000526020600020905b8154815290600101906020018083116200073d57829003601f168201915b5050505050815260200160048054620007749062001399565b80601f0160208091040260200160405190810160405280929190818152602001828054620007a29062001399565b8015620007f35780601f10620007c757610100808354040283529160200191620007f3565b820191906000526020600020905b815481529060010190602001808311620007d557829003601f168201915b505050505081526020018573ffffffffffffffffffffffffffffffffffffffff168152602001600560009054906101000a900463ffffffff1663ffffffff1681526020013373ffffffffffffffffffffffffffffffffffffffff1681526020016040518060400160405280600281526020017f307800000000000000000000000000000000000000000000000000000000000081525081526020016040518060400160405280600281526020017f30780000000000000000000000000000000000000000000000000000000000008152508152602001600560049054906101000a90046bffffffffffffffffffffffff166bffffffffffffffffffffffff16815250905060008054906101000a900473ffffffffffffffffffffffffffffffffffffffff1673ffffffffffffffffffffffffffffffffffffffff1663095ea7b3600160009054906101000a900473ffffffffffffffffffffffffffffffffffffffff168360e001516040518363ffffffff1660e01b81526004016200097a929190620017a3565b6020604051808303816000875af11580156200099a573d6000803e3d6000fd5b505050506040513d601f19601f82011682018060405250810190620009c0919062001771565b506000600160009054906101000a900473ffffffffffffffffffffffffffffffffffffffff1673ffffffffffffffffffffffffffffffffffffffff166308b79da4836040518263ffffffff1660e01b815260040162000a2091906200196b565b6020604051808303816000875af115801562000a40573d6000803e3d6000fd5b505050506040513d601f19601f8201168201806040525081019062000a669190620019a6565b90506000811162000aae576040517f08c379a000000000000000000000000000000000000000000000000000000000815260040162000aa59062001a28565b60405180910390fd5b505050505b9695505050505050565b6004805462000acc9062001399565b80601f016020809104026020016040519081016040528092919081815260200182805462000afa9062001399565b801562000b4b5780601f1062000b1f5761010080835404028352916020019162000b4b565b820191906000526020600020905b81548152906001019060200180831162000b2d57829003601f168201915b505050505081565b60076020528060005260406000206000915054906101000a900473ffffffffffffffffffffffffffffffffffffffff1681565b600560049054906101000a90046bffffffffffffffffffffffff1681565b60065481565b600560009054906101000a900463ffffffff1681565b600062000bcf83833062000bd7565b905092915050565b60008060ff60f81b83868660405160200162000bf7949392919062001b1a565b6040516020818303038152906040528051906020012090508060001c9150509392505050565b610d538062001b7183390190565b600081519050919050565b600082825260208201905092915050565b60005b8381101562000c6757808201518184015260208101905062000c4a565b60008484015250505050565b6000601f19601f8301169050919050565b600062000c918262000c2b565b62000c9d818562000c36565b935062000caf81856020860162000c47565b62000cba8162000c73565b840191505092915050565b6000602082019050818103600083015262000ce1818462000c84565b905092915050565b600073ffffffffffffffffffffffffffffffffffffffff82169050919050565b6000819050919050565b600062000d3462000d2e62000d288462000ce9565b62000d09565b62000ce9565b9050919050565b600062000d488262000d13565b9050919050565b600062000d5c8262000d3b565b9050919050565b62000d6e8162000d4f565b82525050565b600060208201905062000d8b600083018462000d63565b92915050565b600062000d9e8262000d3b565b9050919050565b62000db08162000d91565b82525050565b600060208201905062000dcd600083018462000da5565b92915050565b600062000de08262000d3b565b9050919050565b62000df28162000dd3565b82525050565b600060208201905062000e0f600083018462000de7565b92915050565b6000604051905090565b600080fd5b600080fd5b600080fd5b7f4e487b7100000000000000000000000000000000000000000000000000000000600052604160045260246000fd5b62000e688262000c73565b810181811067ffffffffffffffff8211171562000e8a5762000e8962000e2e565b5b80604052505050565b600062000e9f62000e15565b905062000ead828262000e5d565b919050565b600067ffffffffffffffff82111562000ed05762000ecf62000e2e565b5b602082029050602081019050919050565b600080fd5b600080fd5b600062000ef88262000ce9565b9050919050565b62000f0a8162000eeb565b811462000f1657600080fd5b50565b60008135905062000f2a8162000eff565b92915050565b600062000f3d8262000eeb565b9050919050565b62000f4f8162000f30565b811462000f5b57600080fd5b50565b60008135905062000f6f8162000f44565b92915050565b6000819050919050565b62000f8a8162000f75565b811462000f9657600080fd5b50565b60008135905062000faa8162000f7f565b92915050565b600062ffffff82169050919050565b62000fca8162000fb0565b811462000fd657600080fd5b50565b60008135905062000fea8162000fbf565b92915050565b60006080828403121562001009576200100862000ee6565b5b62001015608062000e93565b90506000620010278482850162000f19565b60008301525060206200103d8482850162000f5e565b6020830152506040620010538482850162000f99565b6040830152506060620010698482850162000fd9565b60608301525092915050565b60006200108c620010868462000eb2565b62000e93565b90508083825260208201905060808402830185811115620010b257620010b162000ee1565b5b835b81811015620010df5780620010ca888262000ff0565b845260208401935050608081019050620010b4565b5050509392505050565b600082601f83011262001101576200110062000e29565b5b81356200111384826020860162001075565b91505092915050565b60008060008060008060c087890312156200113c576200113b62000e1f565b5b600087013567ffffffffffffffff8111156200115d576200115c62000e24565b5b6200116b89828a01620010e9565b96505060206200117e89828a0162000f99565b95505060406200119189828a0162000f99565b9450506060620011a489828a0162000f19565b9350506080620011b789828a0162000f19565b92505060a0620011ca89828a0162000f99565b9150509295509295509295565b620011e28162000eeb565b82525050565b6000602082019050620011ff6000830184620011d7565b92915050565b600081519050919050565b600082825260208201905092915050565b60006200122e8262001205565b6200123a818562001210565b93506200124c81856020860162000c47565b620012578162000c73565b840191505092915050565b600060208201905081810360008301526200127e818462001221565b905092915050565b6000602082840312156200129f576200129e62000e1f565b5b6000620012af8482850162000f99565b91505092915050565b60006bffffffffffffffffffffffff82169050919050565b620012db81620012b8565b82525050565b6000602082019050620012f86000830184620012d0565b92915050565b620013098162000f75565b82525050565b6000602082019050620013266000830184620012fe565b92915050565b600063ffffffff82169050919050565b62001347816200132c565b82525050565b60006020820190506200136460008301846200133c565b92915050565b7f4e487b7100000000000000000000000000000000000000000000000000000000600052602260045260246000fd5b60006002820490506001821680620013b257607f821691505b602082108103620013c857620013c76200136a565b5b50919050565b600081519050919050565b600082825260208201905092915050565b6000819050602082019050919050565b620014058162000eeb565b82525050565b6000620014188262000d3b565b9050919050565b6200142a816200140b565b82525050565b6200143b8162000f75565b82525050565b6200144c8162000fb0565b82525050565b6080820160008201516200146a6000850182620013fa565b5060208201516200147f60208501826200141f565b50604082015162001494604085018262001430565b506060820151620014a9606085018262001441565b50505050565b6000620014bd838362001452565b60808301905092915050565b6000602082019050919050565b6000620014e382620013ce565b620014ef8185620013d9565b9350620014fc83620013ea565b8060005b8381101562001533578151620015178882620014af565b97506200152483620014c9565b92505060018101905062001500565b5085935050505092915050565b600060a08201905081810360008301526200155c8188620014d6565b90506200156d6020830187620012fe565b6200157c6040830186620012fe565b6200158b6060830185620011d7565b6200159a6080830184620011d7565b9695505050505050565b6000604082019050620015bb6000830185620011d7565b8181036020830152620015cf818462001221565b90509392505050565b600081905092915050565b6000620015f08262001205565b620015fc8185620015d8565b93506200160e81856020860162000c47565b80840191505092915050565b6000620016288285620015e3565b9150620016368284620015e3565b91508190509392505050565b7f4e487b7100000000000000000000000000000000000000000000000000000000600052601160045260246000fd5b60006200167e8262000f75565b91507fffffffffffffffffffffffffffffffffffffffffffffffffffffffffffffffff8203620016b357620016b262001642565b5b600182019050919050565b6000620016df620016d9620016d384620012b8565b62000d09565b62000f75565b9050919050565b620016f181620016be565b82525050565b60006060820190506200170e6000830186620011d7565b6200171d6020830185620011d7565b6200172c6040830184620016e6565b949350505050565b60008115159050919050565b6200174b8162001734565b81146200175757600080fd5b50565b6000815190506200176b8162001740565b92915050565b6000602082840312156200178a576200178962000e1f565b5b60006200179a848285016200175a565b91505092915050565b6000604082019050620017ba6000830185620011d7565b620017c96020830184620016e6565b9392505050565b600082825260208201905092915050565b6000620017ee8262000c2b565b620017fa8185620017d0565b93506200180c81856020860162000c47565b620018178162000c73565b840191505092915050565b600082825260208201905092915050565b6000620018408262001205565b6200184c818562001822565b93506200185e81856020860162000c47565b620018698162000c73565b840191505092915050565b6200187f816200132c565b82525050565b6200189081620012b8565b82525050565b6000610100830160008301518482036000860152620018b68282620017e1565b91505060208301518482036020860152620018d2828262001833565b9150506040830151620018e96040860182620013fa565b506060830151620018fe606086018262001874565b506080830151620019136080860182620013fa565b5060a083015184820360a08601526200192d828262001833565b91505060c083015184820360c086015262001949828262001833565b91505060e08301516200196060e086018262001885565b508091505092915050565b6000602082019050818103600083015262001987818462001896565b905092915050565b600081519050620019a08162000f7f565b92915050565b600060208284031215620019bf57620019be62000e1f565b5b6000620019cf848285016200198f565b91505092915050565b7f526567697374726174696f6e206661696c656400000000000000000000000000600082015250565b600062001a1060138362000c36565b915062001a1d82620019d8565b602082019050919050565b6000602082019050818103600083015262001a438162001a01565b9050919050565b60007fff0000000000000000000000000000000000000000000000000000000000000082169050919050565b6000819050919050565b62001a9562001a8f8262001a4a565b62001a76565b82525050565b60008160601b9050919050565b600062001ab58262001a9b565b9050919050565b600062001ac98262001aa8565b9050919050565b62001ae562001adf8262000eeb565b62001abc565b82525050565b6000819050919050565b6000819050919050565b62001b1462001b0e8262001aeb565b62001af5565b82525050565b600062001b28828762001a80565b60018201915062001b3a828662001ad0565b60148201915062001b4c828562001aff565b60208201915062001b5e828462001aff565b6020820191508190509594505050505056fe608060405260405162000d5338038062000d538339818101604052810190620000299190620005ba565b60017f360894a13ba1a3210667c828492db98dca3e2076cc3735a920a3ca505d382bbd60001c6200005b919062000659565b60001b7f360894a13ba1a3210667c828492db98dca3e2076cc3735a920a3ca505d382bbc60001b1462000093576200009262000694565b5b620000a782826000620000af60201b60201c565b5050620008da565b620000c083620000f260201b60201c565b600082511180620000ce5750805b15620000ed57620000eb83836200014960201b620000371760201c565b505b505050565b62000103816200017f60201b60201c565b8073ffffffffffffffffffffffffffffffffffffffff167fbc7cd75a20ee27fd9adebab32041f755214dbc6bffa90cc0225b39da2e5c2d3b60405160405180910390a250565b606062000177838360405180606001604052806027815260200162000d2c602791396200025560201b60201c565b905092915050565b62000195816200033960201b620000641760201c565b620001d7576040517f08c379a0000000000000000000000000000000000000000000000000000000008152600401620001ce906200074a565b60405180910390fd5b80620002117f360894a13ba1a3210667c828492db98dca3e2076cc3735a920a3ca505d382bbc60001b6200034c60201b620000771760201c565b60000160006101000a81548173ffffffffffffffffffffffffffffffffffffffff021916908373ffffffffffffffffffffffffffffffffffffffff16021790555050565b606062000268846200033960201b60201c565b620002aa576040517f08c379a0000000000000000000000000000000000000000000000000000000008152600401620002a190620007e2565b60405180910390fd5b6000808573ffffffffffffffffffffffffffffffffffffffff1685604051620002d4919062000851565b600060405180830381855af49150503d806000811462000311576040519150601f19603f3d011682016040523d82523d6000602084013e62000316565b606091505b50915091506200032e8282866200035660201b60201c565b925050509392505050565b600080823b905060008111915050919050565b6000819050919050565b606083156200036857829050620003bb565b6000835111156200037c5782518084602001fd5b816040517f08c379a0000000000000000000000000000000000000000000000000000000008152600401620003b29190620008b6565b60405180910390fd5b9392505050565b6000604051905090565b600080fd5b600080fd5b600073ffffffffffffffffffffffffffffffffffffffff82169050919050565b60006200040382620003d6565b9050919050565b6200041581620003f6565b81146200042157600080fd5b50565b60008151905062000435816200040a565b92915050565b600080fd5b600080fd5b6000601f19601f8301169050919050565b7f4e487b7100000000000000000000000000000000000000000000000000000000600052604160045260246000fd5b620004908262000445565b810181811067ffffffffffffffff82111715620004b257620004b162000456565b5b80604052505050565b6000620004c7620003c2565b9050620004d5828262000485565b919050565b600067ffffffffffffffff821115620004f857620004f762000456565b5b620005038262000445565b9050602081019050919050565b60005b838110156200053057808201518184015260208101905062000513565b60008484015250505050565b6000620005536200054d84620004da565b620004bb565b90508281526020810184848401111562000572576200057162000440565b5b6200057f84828562000510565b509392505050565b600082601f8301126200059f576200059e6200043b565b5b8151620005b18482602086016200053c565b91505092915050565b60008060408385031215620005d457620005d3620003cc565b5b6000620005e48582860162000424565b925050602083015167ffffffffffffffff811115620006085762000607620003d1565b5b620006168582860162000587565b9150509250929050565b6000819050919050565b7f4e487b7100000000000000000000000000000000000000000000000000000000600052601160045260246000fd5b6000620006668262000620565b9150620006738362000620565b92508282039050818111156200068e576200068d6200062a565b5b92915050565b7f4e487b7100000000000000000000000000000000000000000000000000000000600052600160045260246000fd5b600082825260208201905092915050565b7f455243313936373a206e657720696d706c656d656e746174696f6e206973206e60008201527f6f74206120636f6e747261637400000000000000000000000000000000000000602082015250565b600062000732602d83620006c3565b91506200073f82620006d4565b604082019050919050565b60006020820190508181036000830152620007658162000723565b9050919050565b7f416464726573733a2064656c65676174652063616c6c20746f206e6f6e2d636f60008201527f6e74726163740000000000000000000000000000000000000000000000000000602082015250565b6000620007ca602683620006c3565b9150620007d7826200076c565b604082019050919050565b60006020820190508181036000830152620007fd81620007bb565b9050919050565b600081519050919050565b600081905092915050565b6000620008278262000804565b6200083381856200080f565b93506200084581856020860162000510565b80840191505092915050565b60006200085f82846200081a565b915081905092915050565b600081519050919050565b600062000882826200086a565b6200088e8185620006c3565b9350620008a081856020860162000510565b620008ab8162000445565b840191505092915050565b60006020820190508181036000830152620008d2818462000875565b905092915050565b61044280620008ea6000396000f3fe6080604052366100135761001161001d565b005b61001b61001d565b005b610025610081565b610035610030610083565b610092565b565b606061005c83836040518060600160405280602781526020016103e6602791396100b8565b905092915050565b600080823b905060008111915050919050565b6000819050919050565b565b600061008d610185565b905090565b3660008037600080366000845af43d6000803e80600081146100b3573d6000f35b3d6000fd5b60606100c384610064565b610102576040517f08c379a00000000000000000000000000000000000000000000000000000000081526004016100f9906102c6565b60405180910390fd5b6000808573ffffffffffffffffffffffffffffffffffffffff168560405161012a9190610357565b600060405180830381855af49150503d8060008114610165576040519150601f19603f3d011682016040523d82523d6000602084013e61016a565b606091505b509150915061017a8282866101dc565b925050509392505050565b60006101b37f360894a13ba1a3210667c828492db98dca3e2076cc3735a920a3ca505d382bbc60001b610077565b60000160009054906101000a900473ffffffffffffffffffffffffffffffffffffffff16905090565b606083156101ec5782905061023c565b6000835111156101ff5782518084602001fd5b816040517f08c379a000000000000000000000000000000000000000000000000000000000815260040161023391906103c3565b60405180910390fd5b9392505050565b600082825260208201905092915050565b7f416464726573733a2064656c65676174652063616c6c20746f206e6f6e2d636f60008201527f6e74726163740000000000000000000000000000000000000000000000000000602082015250565b60006102b0602683610243565b91506102bb82610254565b604082019050919050565b600060208201905081810360008301526102df816102a3565b9050919050565b600081519050919050565b600081905092915050565b60005b8381101561031a5780820151818401526020810190506102ff565b60008484015250505050565b6000610331826102e6565b61033b81856102f1565b935061034b8185602086016102fc565b80840191505092915050565b60006103638284610326565b915081905092915050565b600081519050919050565b6000601f19601f8301169050919050565b60006103958261036e565b61039f8185610243565b93506103af8185602086016102fc565b6103b881610379565b840191505092915050565b600060208201905081810360008301526103dd818461038a565b90509291505056fe416464726573733a206c6f772d6c6576656c2064656c65676174652063616c6c206661696c6564a2646970667358221220e8c3afc3fb51dbf112251a99ed961dc434d1bd3886f2ddb27f3e39f1885a966264736f6c63430008120033416464726573733a206c6f772d6c6576656c2064656c65676174652063616c6c206661696c6564a2646970667358221220ec730d42aa5f01cc5d3cc343fc62f3e8b2780e91fcc4818f2e8d862114cf3d2064736f6c6343000812003360c06040523073ffffffffffffffffffffffffffffffffffffffff1660809073ffffffffffffffffffffffffffffffffffffffff168152503480156200004457600080fd5b50604051620029243803806200292483398181016040528101906200006a91906200010f565b8073ffffffffffffffffffffffffffffffffffffffff1660a08173ffffffffffffffffffffffffffffffffffffffff16815250505062000141565b600080fd5b600073ffffffffffffffffffffffffffffffffffffffff82169050919050565b6000620000d782620000aa565b9050919050565b620000e981620000ca565b8114620000f557600080fd5b50565b6000815190506200010981620000de565b92915050565b600060208284031215620001285762000127620000a5565b5b60006200013884828501620000f8565b91505092915050565b60805160a05161279a6200018a600039600081816105ae0152818161072f01526109d401526000818161028f0152818161031d015281816107e80152610876015261279a6000f3fe60806040526004361061009c5760003560e01c8063527a156511610064578063527a15651461017a5780636e04ff0d146101a557806370c10578146101e3578063735de9f71461020e5780638da5cb5b14610239578063bdb5cab6146102645761009c565b80633659cfe6146100a15780633e413bee146100ca5780634585e33b146100f55780634f1ef2861461011e5780634f64b2be1461013a575b600080fd5b3480156100ad57600080fd5b506100c860048036038101906100c3919061165a565b61028d565b005b3480156100d657600080fd5b506100df610415565b6040516100ec9190611696565b60405180910390f35b34801561010157600080fd5b5061011c60048036038101906101179190611716565b61043b565b005b610138600480360381019061013391906118a4565b6107e6565b005b34801561014657600080fd5b50610161600480360381019061015c9190611936565b610922565b60405161017194939291906119ef565b60405180910390f35b34801561018657600080fd5b5061018f6109b1565b60405161019c9190611a34565b60405180910390f35b3480156101b157600080fd5b506101cc60048036038101906101c79190611716565b6109b7565b6040516101da929190611ae9565b60405180910390f35b3480156101ef57600080fd5b506101f86109cc565b6040516102059190611a34565b60405180910390f35b34801561021a57600080fd5b506102236109d2565b6040516102309190611b3a565b60405180910390f35b34801561024557600080fd5b5061024e6109f6565b60405161025b9190611696565b60405180910390f35b34801561027057600080fd5b5061028b60048036038101906102869190611cff565b610a1c565b005b7f000000000000000000000000000000000000000000000000000000000000000073ffffffffffffffffffffffffffffffffffffffff163073ffffffffffffffffffffffffffffffffffffffff160361031b576040517f08c379a000000000000000000000000000000000000000000000000000000000815260040161031290611e19565b60405180910390fd5b7f000000000000000000000000000000000000000000000000000000000000000073ffffffffffffffffffffffffffffffffffffffff1661035a610b07565b73ffffffffffffffffffffffffffffffffffffffff16146103b0576040517f08c379a00000000000000000000000000000000000000000000000000000000081526004016103a790611eab565b60405180910390fd5b6103b981610b5e565b61041281600067ffffffffffffffff8111156103d8576103d7611779565b5b6040519080825280601f01601f19166020018201604052801561040a5781602001600182028036833780820191505090505b506000610bf1565b50565b600460009054906101000a900473ffffffffffffffffffffffffffffffffffffffff1681565b6000610445610dc2565b905080610487576040517f08c379a000000000000000000000000000000000000000000000000000000000815260040161047e90611f17565b60405180910390fd5b60005b6003805490508110156107e0576000600382815481106104ad576104ac611f37565b5b906000526020600020906004020160000160009054906101000a900473ffffffffffffffffffffffffffffffffffffffff1673ffffffffffffffffffffffffffffffffffffffff166370a08231306040518263ffffffff1660e01b81526004016105179190611696565b602060405180830381865afa158015610534573d6000803e3d6000fd5b505050506040513d601f19601f820116820180604052508101906105589190611f7b565b905060008111156107cc576105d36003838154811061057a57610579611f37565b5b906000526020600020906004020160000160009054906101000a900473ffffffffffffffffffffffffffffffffffffffff167f000000000000000000000000000000000000000000000000000000000000000083610fe2565b6000604051806101000160405280600385815481106105f5576105f4611f37565b5b906000526020600020906004020160000160009054906101000a900473ffffffffffffffffffffffffffffffffffffffff1673ffffffffffffffffffffffffffffffffffffffff168152602001600460009054906101000a900473ffffffffffffffffffffffffffffffffffffffff1673ffffffffffffffffffffffffffffffffffffffff1681526020016003858154811061069457610693611f37565b5b906000526020600020906004020160030160009054906101000a900462ffffff1662ffffff168152602001600060029054906101000a900473ffffffffffffffffffffffffffffffffffffffff1673ffffffffffffffffffffffffffffffffffffffff16815260200142815260200183815260200160008152602001600073ffffffffffffffffffffffffffffffffffffffff1681525090507f000000000000000000000000000000000000000000000000000000000000000073ffffffffffffffffffffffffffffffffffffffff1663414bf389826040518263ffffffff1660e01b81526004016107869190612086565b6020604051808303816000875af11580156107a5573d6000803e3d6000fd5b505050506040513d601f19601f820116820180604052508101906107c99190611f7b565b50505b5080806107d8906120d1565b91505061048a565b50505050565b7f000000000000000000000000000000000000000000000000000000000000000073ffffffffffffffffffffffffffffffffffffffff163073ffffffffffffffffffffffffffffffffffffffff1603610874576040517f08c379a000000000000000000000000000000000000000000000000000000000815260040161086b90611e19565b60405180910390fd5b7f000000000000000000000000000000000000000000000000000000000000000073ffffffffffffffffffffffffffffffffffffffff166108b3610b07565b73ffffffffffffffffffffffffffffffffffffffff1614610909576040517f08c379a000000000000000000000000000000000000000000000000000000000815260040161090090611eab565b60405180910390fd5b61091282610b5e565b61091e82826001610bf1565b5050565b6003818154811061093257600080fd5b90600052602060002090600402016000915090508060000160009054906101000a900473ffffffffffffffffffffffffffffffffffffffff16908060010160009054906101000a900473ffffffffffffffffffffffffffffffffffffffff16908060020154908060030160009054906101000a900462ffffff16905084565b60015481565b600060606109c3610dc2565b91509250929050565b60025481565b7f000000000000000000000000000000000000000000000000000000000000000081565b600060029054906101000a900473ffffffffffffffffffffffffffffffffffffffff1681565b600060019054906101000a900460ff1680610a42575060008054906101000a900460ff16155b610a81576040517f08c379a0000000000000000000000000000000000000000000000000000000008152600401610a789061218b565b60405180910390fd5b60008060019054906101000a900460ff161590508015610ad1576001600060016101000a81548160ff02191690831515021790555060016000806101000a81548160ff0219169083151502179055505b610ade8686868686611137565b8015610aff5760008060016101000a81548160ff0219169083151502179055505b505050505050565b6000610b357f360894a13ba1a3210667c828492db98dca3e2076cc3735a920a3ca505d382bbc60001b611358565b60000160009054906101000a900473ffffffffffffffffffffffffffffffffffffffff16905090565b600060029054906101000a900473ffffffffffffffffffffffffffffffffffffffff1673ffffffffffffffffffffffffffffffffffffffff163373ffffffffffffffffffffffffffffffffffffffff1614610bee576040517f08c379a0000000000000000000000000000000000000000000000000000000008152600401610be5906121f7565b60405180910390fd5b50565b6000610bfb610b07565b9050610c0684611362565b600083511180610c135750815b15610c2457610c22848461141b565b505b6000610c527f4910fdfa16fed3260ed0e7147f7cc6da11a60208b5b9406d12a635614ffd914360001b611448565b90508060000160009054906101000a900460ff16610dbb5760018160000160006101000a81548160ff021916908315150217905550610d1e8583604051602401610c9c9190611696565b6040516020818303038152906040527f3659cfe6000000000000000000000000000000000000000000000000000000007bffffffffffffffffffffffffffffffffffffffffffffffffffffffff19166020820180517bffffffffffffffffffffffffffffffffffffffffffffffffffffffff838183161783525050505061141b565b5060008160000160006101000a81548160ff021916908315150217905550610d44610b07565b73ffffffffffffffffffffffffffffffffffffffff168273ffffffffffffffffffffffffffffffffffffffff1614610db1576040517f08c379a0000000000000000000000000000000000000000000000000000000008152600401610da890612289565b60405180910390fd5b610dba85611452565b5b5050505050565b6000806000905060005b600380549050811015610fbc57600060038281548110610def57610dee611f37565b5b906000526020600020906004020160000160009054906101000a900473ffffffffffffffffffffffffffffffffffffffff169050600060038381548110610e3957610e38611f37565b5b906000526020600020906004020160010160009054906101000a900473ffffffffffffffffffffffffffffffffffffffff1673ffffffffffffffffffffffffffffffffffffffff1663feaf968c6040518163ffffffff1660e01b815260040160a060405180830381865afa158015610eb5573d6000803e3d6000fd5b505050506040513d601f19601f82011682018060405250810190610ed99190612321565b50505091505060008273ffffffffffffffffffffffffffffffffffffffff166370a08231306040518263ffffffff1660e01b8152600401610f1a9190611696565b602060405180830381865afa158015610f37573d6000803e3d6000fd5b505050506040513d601f19601f82011682018060405250810190610f5b9190611f7b565b905060038481548110610f7157610f70611f37565b5b9060005260206000209060040201600201548282610f8f919061239c565b610f99919061240d565b85610fa4919061243e565b94505050508080610fb4906120d1565b915050610dcc565b5060015481111580610fd057506002548110155b8015610fdc5750600081115b91505090565b6000808473ffffffffffffffffffffffffffffffffffffffff1663095ea7b360e01b8585604051602401611017929190612472565b604051602081830303815290604052907bffffffffffffffffffffffffffffffffffffffffffffffffffffffff19166020820180517bffffffffffffffffffffffffffffffffffffffffffffffffffffffff838183161783525050505060405161108191906124d7565b6000604051808303816000865af19150503d80600081146110be576040519150601f19603f3d011682016040523d82523d6000602084013e6110c3565b606091505b50915091508180156110f157506000815114806110f05750808060200190518101906110ef919061251a565b5b5b611130576040517f08c379a000000000000000000000000000000000000000000000000000000000815260040161112790612593565b60405180910390fd5b5050505050565b60005b855181101561125b57600386828151811061115857611157611f37565b5b6020026020010151908060018154018082558091505060019003906000526020600020906004020160009091909190915060008201518160000160006101000a81548173ffffffffffffffffffffffffffffffffffffffff021916908373ffffffffffffffffffffffffffffffffffffffff16021790555060208201518160010160006101000a81548173ffffffffffffffffffffffffffffffffffffffff021916908373ffffffffffffffffffffffffffffffffffffffff1602179055506040820151816002015560608201518160030160006101000a81548162ffffff021916908362ffffff16021790555050508080611253906120d1565b91505061113a565b50836001819055508260028190555081600060026101000a81548173ffffffffffffffffffffffffffffffffffffffff021916908373ffffffffffffffffffffffffffffffffffffffff16021790555080600460006101000a81548173ffffffffffffffffffffffffffffffffffffffff021916908373ffffffffffffffffffffffffffffffffffffffff160217905550600060029054906101000a900473ffffffffffffffffffffffffffffffffffffffff1673ffffffffffffffffffffffffffffffffffffffff167f3fe0ca1ba172cddc9a1ae9b1b8bc5e6f6df7ff8e9b9066489710f212bb3a25b960405160405180910390a25050505050565b6000819050919050565b61136b816114a1565b6113aa576040517f08c379a00000000000000000000000000000000000000000000000000000000081526004016113a190612625565b60405180910390fd5b806113d77f360894a13ba1a3210667c828492db98dca3e2076cc3735a920a3ca505d382bbc60001b611358565b60000160006101000a81548173ffffffffffffffffffffffffffffffffffffffff021916908373ffffffffffffffffffffffffffffffffffffffff16021790555050565b6060611440838360405180606001604052806027815260200161273e602791396114b4565b905092915050565b6000819050919050565b61145b81611362565b8073ffffffffffffffffffffffffffffffffffffffff167fbc7cd75a20ee27fd9adebab32041f755214dbc6bffa90cc0225b39da2e5c2d3b60405160405180910390a250565b600080823b905060008111915050919050565b60606114bf846114a1565b6114fe576040517f08c379a00000000000000000000000000000000000000000000000000000000081526004016114f5906126b7565b60405180910390fd5b6000808573ffffffffffffffffffffffffffffffffffffffff168560405161152691906124d7565b600060405180830381855af49150503d8060008114611561576040519150601f19603f3d011682016040523d82523d6000602084013e611566565b606091505b5091509150611576828286611581565b925050509392505050565b60608315611591578290506115e1565b6000835111156115a45782518084602001fd5b816040517f08c379a00000000000000000000000000000000000000000000000000000000081526004016115d8919061271b565b60405180910390fd5b9392505050565b6000604051905090565b600080fd5b600080fd5b600073ffffffffffffffffffffffffffffffffffffffff82169050919050565b6000611627826115fc565b9050919050565b6116378161161c565b811461164257600080fd5b50565b6000813590506116548161162e565b92915050565b6000602082840312156116705761166f6115f2565b5b600061167e84828501611645565b91505092915050565b6116908161161c565b82525050565b60006020820190506116ab6000830184611687565b92915050565b600080fd5b600080fd5b600080fd5b60008083601f8401126116d6576116d56116b1565b5b8235905067ffffffffffffffff8111156116f3576116f26116b6565b5b60208301915083600182028301111561170f5761170e6116bb565b5b9250929050565b6000806020838503121561172d5761172c6115f2565b5b600083013567ffffffffffffffff81111561174b5761174a6115f7565b5b611757858286016116c0565b92509250509250929050565b600080fd5b6000601f19601f8301169050919050565b7f4e487b7100000000000000000000000000000000000000000000000000000000600052604160045260246000fd5b6117b182611768565b810181811067ffffffffffffffff821117156117d0576117cf611779565b5b80604052505050565b60006117e36115e8565b90506117ef82826117a8565b919050565b600067ffffffffffffffff82111561180f5761180e611779565b5b61181882611768565b9050602081019050919050565b82818337600083830152505050565b6000611847611842846117f4565b6117d9565b90508281526020810184848401111561186357611862611763565b5b61186e848285611825565b509392505050565b600082601f83011261188b5761188a6116b1565b5b813561189b848260208601611834565b91505092915050565b600080604083850312156118bb576118ba6115f2565b5b60006118c985828601611645565b925050602083013567ffffffffffffffff8111156118ea576118e96115f7565b5b6118f685828601611876565b9150509250929050565b6000819050919050565b61191381611900565b811461191e57600080fd5b50565b6000813590506119308161190a565b92915050565b60006020828403121561194c5761194b6115f2565b5b600061195a84828501611921565b91505092915050565b6000819050919050565b600061198861198361197e846115fc565b611963565b6115fc565b9050919050565b600061199a8261196d565b9050919050565b60006119ac8261198f565b9050919050565b6119bc816119a1565b82525050565b6119cb81611900565b82525050565b600062ffffff82169050919050565b6119e9816119d1565b82525050565b6000608082019050611a046000830187611687565b611a1160208301866119b3565b611a1e60408301856119c2565b611a2b60608301846119e0565b95945050505050565b6000602082019050611a4960008301846119c2565b92915050565b60008115159050919050565b611a6481611a4f565b82525050565b600081519050919050565b600082825260208201905092915050565b60005b83811015611aa4578082015181840152602081019050611a89565b60008484015250505050565b6000611abb82611a6a565b611ac58185611a75565b9350611ad5818560208601611a86565b611ade81611768565b840191505092915050565b6000604082019050611afe6000830185611a5b565b8181036020830152611b108184611ab0565b90509392505050565b6000611b248261198f565b9050919050565b611b3481611b19565b82525050565b6000602082019050611b4f6000830184611b2b565b92915050565b600067ffffffffffffffff821115611b7057611b6f611779565b5b602082029050602081019050919050565b600080fd5b6000611b918261161c565b9050919050565b611ba181611b86565b8114611bac57600080fd5b50565b600081359050611bbe81611b98565b92915050565b611bcd816119d1565b8114611bd857600080fd5b50565b600081359050611bea81611bc4565b92915050565b600060808284031215611c0657611c05611b81565b5b611c1060806117d9565b90506000611c2084828501611645565b6000830152506020611c3484828501611baf565b6020830152506040611c4884828501611921565b6040830152506060611c5c84828501611bdb565b60608301525092915050565b6000611c7b611c7684611b55565b6117d9565b90508083825260208201905060808402830185811115611c9e57611c9d6116bb565b5b835b81811015611cc75780611cb38882611bf0565b845260208401935050608081019050611ca0565b5050509392505050565b600082601f830112611ce657611ce56116b1565b5b8135611cf6848260208601611c68565b91505092915050565b600080600080600060a08688031215611d1b57611d1a6115f2565b5b600086013567ffffffffffffffff811115611d3957611d386115f7565b5b611d4588828901611cd1565b9550506020611d5688828901611921565b9450506040611d6788828901611921565b9350506060611d7888828901611645565b9250506080611d8988828901611645565b9150509295509295909350565b600082825260208201905092915050565b7f46756e6374696f6e206d7573742062652063616c6c6564207468726f7567682060008201527f64656c656761746563616c6c0000000000000000000000000000000000000000602082015250565b6000611e03602c83611d96565b9150611e0e82611da7565b604082019050919050565b60006020820190508181036000830152611e3281611df6565b9050919050565b7f46756e6374696f6e206d7573742062652063616c6c6564207468726f7567682060008201527f6163746976652070726f78790000000000000000000000000000000000000000602082015250565b6000611e95602c83611d96565b9150611ea082611e39565b604082019050919050565b60006020820190508181036000830152611ec481611e88565b9050919050565b7f55706b656570206973206e6f74206e65656465642e0000000000000000000000600082015250565b6000611f01601583611d96565b9150611f0c82611ecb565b602082019050919050565b60006020820190508181036000830152611f3081611ef4565b9050919050565b7f4e487b7100000000000000000000000000000000000000000000000000000000600052603260045260246000fd5b600081519050611f758161190a565b92915050565b600060208284031215611f9157611f906115f2565b5b6000611f9f84828501611f66565b91505092915050565b611fb18161161c565b82525050565b611fc0816119d1565b82525050565b611fcf81611900565b82525050565b611fde816115fc565b82525050565b61010082016000820151611ffb6000850182611fa8565b50602082015161200e6020850182611fa8565b5060408201516120216040850182611fb7565b5060608201516120346060850182611fa8565b5060808201516120476080850182611fc6565b5060a082015161205a60a0850182611fc6565b5060c082015161206d60c0850182611fc6565b5060e082015161208060e0850182611fd5565b50505050565b60006101008201905061209c6000830184611fe4565b92915050565b7f4e487b7100000000000000000000000000000000000000000000000000000000600052601160045260246000fd5b60006120dc82611900565b91507fffffffffffffffffffffffffffffffffffffffffffffffffffffffffffffffff820361210e5761210d6120a2565b5b600182019050919050565b7f496e697469616c697a61626c653a20636f6e747261637420697320616c72656160008201527f647920696e697469616c697a6564000000000000000000000000000000000000602082015250565b6000612175602e83611d96565b915061218082612119565b604082019050919050565b600060208201905081810360008301526121a481612168565b9050919050565b7f6f6e6c79206f776e657200000000000000000000000000000000000000000000600082015250565b60006121e1600a83611d96565b91506121ec826121ab565b602082019050919050565b60006020820190508181036000830152612210816121d4565b9050919050565b7f45524331393637557067726164653a207570677261646520627265616b73206660008201527f7572746865722075706772616465730000000000000000000000000000000000602082015250565b6000612273602f83611d96565b915061227e82612217565b604082019050919050565b600060208201905081810360008301526122a281612266565b9050919050565b600069ffffffffffffffffffff82169050919050565b6122c8816122a9565b81146122d357600080fd5b50565b6000815190506122e5816122bf565b92915050565b6000819050919050565b6122fe816122eb565b811461230957600080fd5b50565b60008151905061231b816122f5565b92915050565b600080600080600060a0868803121561233d5761233c6115f2565b5b600061234b888289016122d6565b955050602061235c8882890161230c565b945050604061236d88828901611f66565b935050606061237e88828901611f66565b925050608061238f888289016122d6565b9150509295509295909350565b60006123a782611900565b91506123b283611900565b92508282026123c081611900565b915082820484148315176123d7576123d66120a2565b5b5092915050565b7f4e487b7100000000000000000000000000000000000000000000000000000000600052601260045260246000fd5b600061241882611900565b915061242383611900565b925082612433576124326123de565b5b828204905092915050565b600061244982611900565b915061245483611900565b925082820190508082111561246c5761246b6120a2565b5b92915050565b60006040820190506124876000830185611687565b61249460208301846119c2565b9392505050565b600081905092915050565b60006124b182611a6a565b6124bb818561249b565b93506124cb818560208601611a86565b80840191505092915050565b60006124e382846124a6565b915081905092915050565b6124f781611a4f565b811461250257600080fd5b50565b600081519050612514816124ee565b92915050565b6000602082840312156125305761252f6115f2565b5b600061253e84828501612505565b91505092915050565b7f5341000000000000000000000000000000000000000000000000000000000000600082015250565b600061257d600283611d96565b915061258882612547565b602082019050919050565b600060208201905081810360008301526125ac81612570565b9050919050565b7f455243313936373a206e657720696d706c656d656e746174696f6e206973206e60008201527f6f74206120636f6e747261637400000000000000000000000000000000000000602082015250565b600061260f602d83611d96565b915061261a826125b3565b604082019050919050565b6000602082019050818103600083015261263e81612602565b9050919050565b7f416464726573733a2064656c65676174652063616c6c20746f206e6f6e2d636f60008201527f6e74726163740000000000000000000000000000000000000000000000000000602082015250565b60006126a1602683611d96565b91506126ac82612645565b604082019050919050565b600060208201905081810360008301526126d081612694565b9050919050565b600081519050919050565b60006126ed826126d7565b6126f78185611d96565b9350612707818560208601611a86565b61271081611768565b840191505092915050565b6000602082019050818103600083015261273581846126e2565b90509291505056fe416464726573733a206c6f772d6c6576656c2064656c65676174652063616c6c206661696c6564a264697066735822122088cc657d5620c256096f944856257a41ad80130f4452f4bd5c7057cf3bb9adcb64736f6c63430008120033",
  "linkReferences": {},
  "deployedLinkReferences": {}
}